{
  "contractName": "Copyrights",
  "abi": [
    {
      "anonymous": false,
      "inputs": [
        {
          "indexed": false,
          "internalType": "uint256",
          "name": "id",
          "type": "uint256"
        },
        {
          "indexed": false,
          "internalType": "string",
          "name": "name",
          "type": "string"
        },
        {
          "indexed": false,
          "internalType": "string",
          "name": "ownerName",
          "type": "string"
        },
        {
          "indexed": false,
          "internalType": "string",
          "name": "description",
          "type": "string"
        },
        {
          "indexed": false,
          "internalType": "address",
          "name": "owner",
          "type": "address"
        },
        {
          "indexed": false,
          "internalType": "uint256",
          "name": "timestamp",
          "type": "uint256"
        }
      ],
      "name": "CopyrightRegistered",
      "type": "event"
    },
    {
      "anonymous": false,
      "inputs": [
        {
          "indexed": false,
          "internalType": "uint256",
          "name": "id",
          "type": "uint256"
        },
        {
          "indexed": false,
          "internalType": "address",
          "name": "newOwner",
          "type": "address"
        }
      ],
      "name": "CopyrightTransferred",
      "type": "event"
    },
    {
      "inputs": [
        {
          "internalType": "uint256",
          "name": "",
          "type": "uint256"
        }
      ],
      "name": "copyrights",
      "outputs": [
        {
          "internalType": "uint256",
          "name": "id",
          "type": "uint256"
        },
        {
          "internalType": "string",
          "name": "name",
          "type": "string"
        },
        {
          "internalType": "string",
          "name": "ownerName",
          "type": "string"
        },
        {
          "internalType": "string",
          "name": "description",
          "type": "string"
        },
        {
          "internalType": "address",
          "name": "owner",
          "type": "address"
        },
        {
          "internalType": "uint256",
          "name": "timestamp",
          "type": "uint256"
        }
      ],
      "stateMutability": "view",
      "type": "function",
      "constant": true
    },
    {
      "inputs": [],
      "name": "nextId",
      "outputs": [
        {
          "internalType": "uint256",
          "name": "",
          "type": "uint256"
        }
      ],
      "stateMutability": "view",
      "type": "function",
      "constant": true
    },
    {
      "inputs": [
        {
          "internalType": "string",
          "name": "name",
          "type": "string"
        },
        {
          "internalType": "string",
          "name": "ownerName",
          "type": "string"
        },
        {
          "internalType": "string",
          "name": "description",
          "type": "string"
        }
      ],
      "name": "registerCopyright",
      "outputs": [],
      "stateMutability": "nonpayable",
      "type": "function"
    },
    {
      "inputs": [
        {
          "internalType": "uint256",
          "name": "id",
          "type": "uint256"
        },
        {
          "internalType": "address",
          "name": "newOwner",
          "type": "address"
        }
      ],
      "name": "transferCopyright",
      "outputs": [],
      "stateMutability": "nonpayable",
      "type": "function"
    },
    {
      "inputs": [
        {
          "internalType": "uint256",
          "name": "id",
          "type": "uint256"
        }
      ],
      "name": "getCopyright",
      "outputs": [
        {
          "components": [
            {
              "internalType": "uint256",
              "name": "id",
              "type": "uint256"
            },
            {
              "internalType": "string",
              "name": "name",
              "type": "string"
            },
            {
              "internalType": "string",
              "name": "ownerName",
              "type": "string"
            },
            {
              "internalType": "string",
              "name": "description",
              "type": "string"
            },
            {
              "internalType": "address",
              "name": "owner",
              "type": "address"
            },
            {
              "internalType": "uint256",
              "name": "timestamp",
              "type": "uint256"
            }
          ],
          "internalType": "struct Copyrights.Copyright",
          "name": "",
          "type": "tuple"
        }
      ],
      "stateMutability": "view",
      "type": "function",
      "constant": true
    }
  ],
  "bytecode": "0x608060405234801561001057600080fd5b506111f7806100206000396000f3fe608060405234801561001057600080fd5b50600436106100575760003560e01c8063039addab1461005c57806361b8ce8c146100785780636f4eaff1146100965780637ceffa58146100c6578063ead4c279146100fb575b600080fd5b61007660048036038101906100719190610b52565b610117565b005b6100806102bb565b60405161008d9190610ea9565b60405180910390f35b6100b060048036038101906100ab9190610b29565b6102c1565b6040516100bd9190610e87565b60405180910390f35b6100e060048036038101906100db9190610b29565b61050d565b6040516100f296959493929190610eed565b60405180910390f35b61011560048036038101906101109190610a92565b610701565b005b3373ffffffffffffffffffffffffffffffffffffffff1660008084815260200190815260200160002060040160009054906101000a900473ffffffffffffffffffffffffffffffffffffffff1673ffffffffffffffffffffffffffffffffffffffff16146101ba576040517f08c379a00000000000000000000000000000000000000000000000000000000081526004016101b190610e47565b60405180910390fd5b600073ffffffffffffffffffffffffffffffffffffffff168173ffffffffffffffffffffffffffffffffffffffff16141561022a576040517f08c379a000000000000000000000000000000000000000000000000000000000815260040161022190610e67565b60405180910390fd5b8060008084815260200190815260200160002060040160006101000a81548173ffffffffffffffffffffffffffffffffffffffff021916908373ffffffffffffffffffffffffffffffffffffffff1602179055507f522e06cb524e9c22d34fabb7d651e6450b4d031fc707430742dcf2c4cf07995882826040516102af929190610ec4565b60405180910390a15050565b60025481565b6102c9610911565b6000808381526020019081526020016000206040518060c0016040529081600082015481526020016001820180546103009061107a565b80601f016020809104026020016040519081016040528092919081815260200182805461032c9061107a565b80156103795780601f1061034e57610100808354040283529160200191610379565b820191906000526020600020905b81548152906001019060200180831161035c57829003601f168201915b505050505081526020016002820180546103929061107a565b80601f01602080910402602001604051908101604052809291908181526020018280546103be9061107a565b801561040b5780601f106103e05761010080835404028352916020019161040b565b820191906000526020600020905b8154815290600101906020018083116103ee57829003601f168201915b505050505081526020016003820180546104249061107a565b80601f01602080910402602001604051908101604052809291908181526020018280546104509061107a565b801561049d5780601f106104725761010080835404028352916020019161049d565b820191906000526020600020905b81548152906001019060200180831161048057829003601f168201915b505050505081526020016004820160009054906101000a900473ffffffffffffffffffffffffffffffffffffffff1673ffffffffffffffffffffffffffffffffffffffff1673ffffffffffffffffffffffffffffffffffffffff1681526020016005820154815250509050919050565b60006020528060005260406000206000915090508060000154908060010180546105369061107a565b80601f01602080910402602001604051908101604052809291908181526020018280546105629061107a565b80156105af5780601f10610584576101008083540402835291602001916105af565b820191906000526020600020905b81548152906001019060200180831161059257829003601f168201915b5050505050908060020180546105c49061107a565b80601f01602080910402602001604051908101604052809291908181526020018280546105f09061107a565b801561063d5780601f106106125761010080835404028352916020019161063d565b820191906000526020600020905b81548152906001019060200180831161062057829003601f168201915b5050505050908060030180546106529061107a565b80601f016020809104026020016040519081016040528092919081815260200182805461067e9061107a565b80156106cb5780601f106106a0576101008083540402835291602001916106cb565b820191906000526020600020905b8154815290600101906020018083116106ae57829003601f168201915b5050505050908060040160009054906101000a900473ffffffffffffffffffffffffffffffffffffffff16908060050154905086565b6001836040516107119190610e10565b908152602001604051809103902060009054906101000a900460ff161561076d576040517f08c379a000000000000000000000000000000000000000000000000000000000815260040161076490610e27565b60405180910390fd5b6040518060c0016040528060025481526020018481526020018381526020018281526020013373ffffffffffffffffffffffffffffffffffffffff1681526020014281525060008060025481526020019081526020016000206000820151816000015560208201518160010190805190602001906107ec92919061095d565b50604082015181600201908051906020019061080992919061095d565b50606082015181600301908051906020019061082692919061095d565b5060808201518160040160006101000a81548173ffffffffffffffffffffffffffffffffffffffff021916908373ffffffffffffffffffffffffffffffffffffffff16021790555060a082015181600501559050506001808460405161088c9190610e10565b908152602001604051809103902060006101000a81548160ff0219169083151502179055507f6b8149620d1432c39526830fca007d35edc82de37a391d244c2c1766ea1d3bb960025484848433426040516108ec96959493929190610eed565b60405180910390a160026000815480929190610907906110ac565b9190505550505050565b6040518060c0016040528060008152602001606081526020016060815260200160608152602001600073ffffffffffffffffffffffffffffffffffffffff168152602001600081525090565b8280546109699061107a565b90600052602060002090601f01602090048101928261098b57600085556109d2565b82601f106109a457805160ff19168380011785556109d2565b828001600101855582156109d2579182015b828111156109d15782518255916020019190600101906109b6565b5b5090506109df91906109e3565b5090565b5b808211156109fc5760008160009055506001016109e4565b5090565b6000610a13610a0e84610f94565b610f63565b905082815260208101848484011115610a2b57600080fd5b610a36848285611038565b509392505050565b600081359050610a4d81611193565b92915050565b600082601f830112610a6457600080fd5b8135610a74848260208601610a00565b91505092915050565b600081359050610a8c816111aa565b92915050565b600080600060608486031215610aa757600080fd5b600084013567ffffffffffffffff811115610ac157600080fd5b610acd86828701610a53565b935050602084013567ffffffffffffffff811115610aea57600080fd5b610af686828701610a53565b925050604084013567ffffffffffffffff811115610b1357600080fd5b610b1f86828701610a53565b9150509250925092565b600060208284031215610b3b57600080fd5b6000610b4984828501610a7d565b91505092915050565b60008060408385031215610b6557600080fd5b6000610b7385828601610a7d565b9250506020610b8485828601610a3e565b9150509250929050565b610b9781610ffc565b82525050565b610ba681610ffc565b82525050565b6000610bb782610fc4565b610bc18185610fcf565b9350610bd1818560208601611047565b610bda81611182565b840191505092915050565b6000610bf082610fc4565b610bfa8185610fe0565b9350610c0a818560208601611047565b610c1381611182565b840191505092915050565b6000610c2982610fc4565b610c338185610ff1565b9350610c43818560208601611047565b80840191505092915050565b6000610c5c602783610fe0565b91507f436f7079726967687420776974682074686973206e616d6520616c726561647960008301527f20657869737473000000000000000000000000000000000000000000000000006020830152604082019050919050565b6000610cc2602983610fe0565b91507f4f6e6c7920746865206f776e65722063616e207472616e73666572207468652060008301527f636f7079726967687400000000000000000000000000000000000000000000006020830152604082019050919050565b6000610d28601983610fe0565b91507f496e76616c6964206e6577206f776e65722061646472657373000000000000006000830152602082019050919050565b600060c083016000830151610d736000860182610df2565b5060208301518482036020860152610d8b8282610bac565b91505060408301518482036040860152610da58282610bac565b91505060608301518482036060860152610dbf8282610bac565b9150506080830151610dd46080860182610b8e565b5060a0830151610de760a0860182610df2565b508091505092915050565b610dfb8161102e565b82525050565b610e0a8161102e565b82525050565b6000610e1c8284610c1e565b915081905092915050565b60006020820190508181036000830152610e4081610c4f565b9050919050565b60006020820190508181036000830152610e6081610cb5565b9050919050565b60006020820190508181036000830152610e8081610d1b565b9050919050565b60006020820190508181036000830152610ea18184610d5b565b905092915050565b6000602082019050610ebe6000830184610e01565b92915050565b6000604082019050610ed96000830185610e01565b610ee66020830184610b9d565b9392505050565b600060c082019050610f026000830189610e01565b8181036020830152610f148188610be5565b90508181036040830152610f288187610be5565b90508181036060830152610f3c8186610be5565b9050610f4b6080830185610b9d565b610f5860a0830184610e01565b979650505050505050565b6000604051905081810181811067ffffffffffffffff82111715610f8a57610f89611153565b5b8060405250919050565b600067ffffffffffffffff821115610faf57610fae611153565b5b601f19601f8301169050602081019050919050565b600081519050919050565b600082825260208201905092915050565b600082825260208201905092915050565b600081905092915050565b60006110078261100e565b9050919050565b600073ffffffffffffffffffffffffffffffffffffffff82169050919050565b6000819050919050565b82818337600083830152505050565b60005b8381101561106557808201518184015260208101905061104a565b83811115611074576000848401525b50505050565b6000600282049050600182168061109257607f821691505b602082108114156110a6576110a5611124565b5b50919050565b60006110b78261102e565b91507fffffffffffffffffffffffffffffffffffffffffffffffffffffffffffffffff8214156110ea576110e96110f5565b5b600182019050919050565b7f4e487b7100000000000000000000000000000000000000000000000000000000600052601160045260246000fd5b7f4e487b7100000000000000000000000000000000000000000000000000000000600052602260045260246000fd5b7f4e487b7100000000000000000000000000000000000000000000000000000000600052604160045260246000fd5b6000601f19601f8301169050919050565b61119c81610ffc565b81146111a757600080fd5b50565b6111b38161102e565b81146111be57600080fd5b5056fea264697066735822122021739217cb2b384c69e47624d6a0c52aa196ed72ad8b522ac01ce87ca28afab764736f6c63430008000033",
  "immutableReferences": {},
  "source": "// SPDX-License-Identifier: MIT\npragma solidity ^0.8.0;\n\ncontract Copyrights {\n    struct Copyright {\n        uint256 id;\n        string name;\n        string ownerName;\n        string description;\n        address owner;\n        uint256 timestamp;\n    }\n\n    mapping(uint256 => Copyright) public copyrights;\n    mapping(string => bool) private nameExists; // Mapping to check for duplicate names\n    uint256 public nextId;\n\n    event CopyrightRegistered(\n        uint256 id,\n        string name,\n        string ownerName,\n        string description,\n        address owner,\n        uint256 timestamp\n    );\n\n    event CopyrightTransferred(\n        uint256 id,\n        address newOwner\n    );\n\n    function registerCopyright(string memory name, string memory ownerName, string memory description) public {\n        require(!nameExists[name], \"Copyright with this name already exists\"); // Check for duplicate names\n        copyrights[nextId] = Copyright(nextId, name, ownerName, description, msg.sender, block.timestamp);\n        nameExists[name] = true; // Mark the name as used\n        emit CopyrightRegistered(nextId, name, ownerName, description, msg.sender, block.timestamp);\n        nextId++;\n    }\n\n    function transferCopyright(uint256 id, address newOwner) public {\n        require(copyrights[id].owner == msg.sender, \"Only the owner can transfer the copyright\");\n        require(newOwner != address(0), \"Invalid new owner address\");\n        copyrights[id].owner = newOwner;\n        emit CopyrightTransferred(id, newOwner);\n    }\n\n    function getCopyright(uint256 id) public view returns (Copyright memory) {\n        return copyrights[id];\n    }\n}",
  "sourcePath": "C:\\Users\\SulaimanBabatunde\\Downloads\\dexcopy\\dexcopy\\dexcopy\\contracts\\Copyrights.sol",
  "compiler": {
    "name": "solc",
    "version": "0.8.0+commit.c7dfd78e.Emscripten.clang"
  },
  "schemaVersion": "3.4.16",
  "updatedAt": "2024-11-05T23:36:23.373Z",
  "networkType": "ethereum",
  "devdoc": {
    "kind": "dev",
    "methods": {},
    "version": 1
  },
  "userdoc": {
    "kind": "user",
    "methods": {},
    "version": 1
  }
}