{
  "contractName": "Copyrights",
  "abi": [
    {
      "anonymous": false,
      "inputs": [
        {
          "indexed": false,
          "internalType": "uint256",
          "name": "id",
          "type": "uint256"
        },
        {
          "indexed": false,
          "internalType": "string",
          "name": "name",
          "type": "string"
        },
        {
          "indexed": false,
          "internalType": "string",
          "name": "ownerName",
          "type": "string"
        },
        {
          "indexed": false,
          "internalType": "string",
          "name": "description",
          "type": "string"
        },
        {
          "indexed": false,
          "internalType": "address",
          "name": "owner",
          "type": "address"
        },
        {
          "indexed": false,
          "internalType": "uint256",
          "name": "timestamp",
          "type": "uint256"
        }
      ],
      "name": "CopyrightRegistered",
      "type": "event"
    },
    {
      "anonymous": false,
      "inputs": [
        {
          "indexed": false,
          "internalType": "uint256",
          "name": "id",
          "type": "uint256"
        },
        {
          "indexed": false,
          "internalType": "address",
          "name": "newOwner",
          "type": "address"
        }
      ],
      "name": "CopyrightTransferred",
      "type": "event"
    },
    {
      "inputs": [
        {
          "internalType": "uint256",
          "name": "",
          "type": "uint256"
        }
      ],
      "name": "copyrights",
      "outputs": [
        {
          "internalType": "uint256",
          "name": "id",
          "type": "uint256"
        },
        {
          "internalType": "string",
          "name": "name",
          "type": "string"
        },
        {
          "internalType": "string",
          "name": "ownerName",
          "type": "string"
        },
        {
          "internalType": "string",
          "name": "description",
          "type": "string"
        },
        {
          "internalType": "address",
          "name": "owner",
          "type": "address"
        },
        {
          "internalType": "uint256",
          "name": "timestamp",
          "type": "uint256"
        }
      ],
      "stateMutability": "view",
      "type": "function",
      "constant": true
    },
    {
      "inputs": [],
      "name": "nextId",
      "outputs": [
        {
          "internalType": "uint256",
          "name": "",
          "type": "uint256"
        }
      ],
      "stateMutability": "view",
      "type": "function",
      "constant": true
    },
    {
      "inputs": [
        {
          "internalType": "string",
          "name": "name",
          "type": "string"
        },
        {
          "internalType": "string",
          "name": "ownerName",
          "type": "string"
        },
        {
          "internalType": "string",
          "name": "description",
          "type": "string"
        }
      ],
      "name": "registerCopyright",
      "outputs": [],
      "stateMutability": "nonpayable",
      "type": "function"
    },
    {
      "inputs": [
        {
          "internalType": "uint256",
          "name": "id",
          "type": "uint256"
        },
        {
          "internalType": "address",
          "name": "newOwner",
          "type": "address"
        }
      ],
      "name": "transferCopyright",
      "outputs": [],
      "stateMutability": "nonpayable",
      "type": "function"
    },
    {
      "inputs": [
        {
          "internalType": "uint256",
          "name": "id",
          "type": "uint256"
        }
      ],
      "name": "getCopyright",
      "outputs": [
        {
          "components": [
            {
              "internalType": "uint256",
              "name": "id",
              "type": "uint256"
            },
            {
              "internalType": "string",
              "name": "name",
              "type": "string"
            },
            {
              "internalType": "string",
              "name": "ownerName",
              "type": "string"
            },
            {
              "internalType": "string",
              "name": "description",
              "type": "string"
            },
            {
              "internalType": "address",
              "name": "owner",
              "type": "address"
            },
            {
              "internalType": "uint256",
              "name": "timestamp",
              "type": "uint256"
            }
          ],
          "internalType": "struct Copyrights.Copyright",
          "name": "",
          "type": "tuple"
        }
      ],
      "stateMutability": "view",
      "type": "function",
      "constant": true
    }
  ],
  "bytecode": "0x608060405234801561001057600080fd5b5061107c806100206000396000f3fe608060405234801561001057600080fd5b50600436106100575760003560e01c8063039addab1461005c57806361b8ce8c146100785780636f4eaff1146100965780637ceffa58146100c6578063ead4c279146100fb575b600080fd5b61007660048036038101906100719190610ab0565b610117565b005b6100806102bb565b60405161008d9190610d39565b60405180910390f35b6100b060048036038101906100ab9190610a87565b6102c1565b6040516100bd9190610d17565b60405180910390f35b6100e060048036038101906100db9190610a87565b61050d565b6040516100f296959493929190610d7d565b60405180910390f35b610115600480360381019061011091906109f0565b610701565b005b3373ffffffffffffffffffffffffffffffffffffffff1660008084815260200190815260200160002060040160009054906101000a900473ffffffffffffffffffffffffffffffffffffffff1673ffffffffffffffffffffffffffffffffffffffff16146101ba576040517f08c379a00000000000000000000000000000000000000000000000000000000081526004016101b190610cd7565b60405180910390fd5b600073ffffffffffffffffffffffffffffffffffffffff168173ffffffffffffffffffffffffffffffffffffffff16141561022a576040517f08c379a000000000000000000000000000000000000000000000000000000000815260040161022190610cf7565b60405180910390fd5b8060008084815260200190815260200160002060040160006101000a81548173ffffffffffffffffffffffffffffffffffffffff021916908373ffffffffffffffffffffffffffffffffffffffff1602179055507f522e06cb524e9c22d34fabb7d651e6450b4d031fc707430742dcf2c4cf07995882826040516102af929190610d54565b60405180910390a15050565b60015481565b6102c961086f565b6000808381526020019081526020016000206040518060c00160405290816000820154815260200160018201805461030090610eff565b80601f016020809104026020016040519081016040528092919081815260200182805461032c90610eff565b80156103795780601f1061034e57610100808354040283529160200191610379565b820191906000526020600020905b81548152906001019060200180831161035c57829003601f168201915b5050505050815260200160028201805461039290610eff565b80601f01602080910402602001604051908101604052809291908181526020018280546103be90610eff565b801561040b5780601f106103e05761010080835404028352916020019161040b565b820191906000526020600020905b8154815290600101906020018083116103ee57829003601f168201915b5050505050815260200160038201805461042490610eff565b80601f016020809104026020016040519081016040528092919081815260200182805461045090610eff565b801561049d5780601f106104725761010080835404028352916020019161049d565b820191906000526020600020905b81548152906001019060200180831161048057829003601f168201915b505050505081526020016004820160009054906101000a900473ffffffffffffffffffffffffffffffffffffffff1673ffffffffffffffffffffffffffffffffffffffff1673ffffffffffffffffffffffffffffffffffffffff1681526020016005820154815250509050919050565b600060205280600052604060002060009150905080600001549080600101805461053690610eff565b80601f016020809104026020016040519081016040528092919081815260200182805461056290610eff565b80156105af5780601f10610584576101008083540402835291602001916105af565b820191906000526020600020905b81548152906001019060200180831161059257829003601f168201915b5050505050908060020180546105c490610eff565b80601f01602080910402602001604051908101604052809291908181526020018280546105f090610eff565b801561063d5780601f106106125761010080835404028352916020019161063d565b820191906000526020600020905b81548152906001019060200180831161062057829003601f168201915b50505050509080600301805461065290610eff565b80601f016020809104026020016040519081016040528092919081815260200182805461067e90610eff565b80156106cb5780601f106106a0576101008083540402835291602001916106cb565b820191906000526020600020905b8154815290600101906020018083116106ae57829003601f168201915b5050505050908060040160009054906101000a900473ffffffffffffffffffffffffffffffffffffffff16908060050154905086565b6040518060c0016040528060015481526020018481526020018381526020018281526020013373ffffffffffffffffffffffffffffffffffffffff1681526020014281525060008060015481526020019081526020016000206000820151816000015560208201518160010190805190602001906107809291906108bb565b50604082015181600201908051906020019061079d9291906108bb565b5060608201518160030190805190602001906107ba9291906108bb565b5060808201518160040160006101000a81548173ffffffffffffffffffffffffffffffffffffffff021916908373ffffffffffffffffffffffffffffffffffffffff16021790555060a082015181600501559050507f6b8149620d1432c39526830fca007d35edc82de37a391d244c2c1766ea1d3bb9600154848484334260405161084a96959493929190610d7d565b60405180910390a16001600081548092919061086590610f31565b9190505550505050565b6040518060c0016040528060008152602001606081526020016060815260200160608152602001600073ffffffffffffffffffffffffffffffffffffffff168152602001600081525090565b8280546108c790610eff565b90600052602060002090601f0160209004810192826108e95760008555610930565b82601f1061090257805160ff1916838001178555610930565b82800160010185558215610930579182015b8281111561092f578251825591602001919060010190610914565b5b50905061093d9190610941565b5090565b5b8082111561095a576000816000905550600101610942565b5090565b600061097161096c84610e24565b610df3565b90508281526020810184848401111561098957600080fd5b610994848285610ebd565b509392505050565b6000813590506109ab81611018565b92915050565b600082601f8301126109c257600080fd5b81356109d284826020860161095e565b91505092915050565b6000813590506109ea8161102f565b92915050565b600080600060608486031215610a0557600080fd5b600084013567ffffffffffffffff811115610a1f57600080fd5b610a2b868287016109b1565b935050602084013567ffffffffffffffff811115610a4857600080fd5b610a54868287016109b1565b925050604084013567ffffffffffffffff811115610a7157600080fd5b610a7d868287016109b1565b9150509250925092565b600060208284031215610a9957600080fd5b6000610aa7848285016109db565b91505092915050565b60008060408385031215610ac357600080fd5b6000610ad1858286016109db565b9250506020610ae28582860161099c565b9150509250929050565b610af581610e81565b82525050565b610b0481610e81565b82525050565b6000610b1582610e54565b610b1f8185610e5f565b9350610b2f818560208601610ecc565b610b3881611007565b840191505092915050565b6000610b4e82610e54565b610b588185610e70565b9350610b68818560208601610ecc565b610b7181611007565b840191505092915050565b6000610b89602983610e70565b91507f4f6e6c7920746865206f776e65722063616e207472616e73666572207468652060008301527f636f7079726967687400000000000000000000000000000000000000000000006020830152604082019050919050565b6000610bef601983610e70565b91507f496e76616c6964206e6577206f776e65722061646472657373000000000000006000830152602082019050919050565b600060c083016000830151610c3a6000860182610cb9565b5060208301518482036020860152610c528282610b0a565b91505060408301518482036040860152610c6c8282610b0a565b91505060608301518482036060860152610c868282610b0a565b9150506080830151610c9b6080860182610aec565b5060a0830151610cae60a0860182610cb9565b508091505092915050565b610cc281610eb3565b82525050565b610cd181610eb3565b82525050565b60006020820190508181036000830152610cf081610b7c565b9050919050565b60006020820190508181036000830152610d1081610be2565b9050919050565b60006020820190508181036000830152610d318184610c22565b905092915050565b6000602082019050610d4e6000830184610cc8565b92915050565b6000604082019050610d696000830185610cc8565b610d766020830184610afb565b9392505050565b600060c082019050610d926000830189610cc8565b8181036020830152610da48188610b43565b90508181036040830152610db88187610b43565b90508181036060830152610dcc8186610b43565b9050610ddb6080830185610afb565b610de860a0830184610cc8565b979650505050505050565b6000604051905081810181811067ffffffffffffffff82111715610e1a57610e19610fd8565b5b8060405250919050565b600067ffffffffffffffff821115610e3f57610e3e610fd8565b5b601f19601f8301169050602081019050919050565b600081519050919050565b600082825260208201905092915050565b600082825260208201905092915050565b6000610e8c82610e93565b9050919050565b600073ffffffffffffffffffffffffffffffffffffffff82169050919050565b6000819050919050565b82818337600083830152505050565b60005b83811015610eea578082015181840152602081019050610ecf565b83811115610ef9576000848401525b50505050565b60006002820490506001821680610f1757607f821691505b60208210811415610f2b57610f2a610fa9565b5b50919050565b6000610f3c82610eb3565b91507fffffffffffffffffffffffffffffffffffffffffffffffffffffffffffffffff821415610f6f57610f6e610f7a565b5b600182019050919050565b7f4e487b7100000000000000000000000000000000000000000000000000000000600052601160045260246000fd5b7f4e487b7100000000000000000000000000000000000000000000000000000000600052602260045260246000fd5b7f4e487b7100000000000000000000000000000000000000000000000000000000600052604160045260246000fd5b6000601f19601f8301169050919050565b61102181610e81565b811461102c57600080fd5b50565b61103881610eb3565b811461104357600080fd5b5056fea2646970667358221220a92ceab213236e23f2384c2207c69edc0e282ca28d330c632ad362c306fad59864736f6c63430008000033",
  "immutableReferences": {},
  "source": "pragma solidity ^0.8.0;\n\ncontract Copyrights {\n    struct Copyright {\n        uint256 id;\n        string name;\n        string ownerName;\n        string description;\n        address owner;\n        uint256 timestamp;\n    }\n\n    mapping(uint256 => Copyright) public copyrights;\n    uint256 public nextId;\n\n    event CopyrightRegistered(\n        uint256 id,\n        string name,\n        string ownerName,\n        string description,\n        address owner,\n        uint256 timestamp\n    );\n\n    event CopyrightTransferred(\n        uint256 id,\n        address newOwner\n    );\n\n    function registerCopyright(string memory name, string memory ownerName, string memory description) public {\n        copyrights[nextId] = Copyright(nextId, name, ownerName, description, msg.sender, block.timestamp);\n        emit CopyrightRegistered(nextId, name, ownerName, description, msg.sender, block.timestamp);\n        nextId++;\n    }\n\n    function transferCopyright(uint256 id, address newOwner) public {\n        require(copyrights[id].owner == msg.sender, \"Only the owner can transfer the copyright\");\n        require(newOwner != address(0), \"Invalid new owner address\");\n        copyrights[id].owner = newOwner;\n        emit CopyrightTransferred(id, newOwner);\n    }\n\n    function getCopyright(uint256 id) public view returns (Copyright memory) {\n        return copyrights[id];\n    }\n}",
  "sourcePath": "C:\\Users\\SulaimanBabatunde\\Downloads\\dexcopy\\dexcopy\\contracts\\Copyrights.sol",
  "compiler": {
    "name": "solc",
    "version": "0.8.0+commit.c7dfd78e.Emscripten.clang"
  },
  "schemaVersion": "3.4.16",
  "updatedAt": "2024-11-04T17:59:48.792Z",
  "networkType": "ethereum",
  "devdoc": {
    "kind": "dev",
    "methods": {},
    "version": 1
  },
  "userdoc": {
    "kind": "user",
    "methods": {},
    "version": 1
  }
}